{
  "contractName": "ResourceToken",
  "abi": [
    {
      "inputs": [],
      "stateMutability": "nonpayable",
      "type": "constructor"
    },
    {
      "inputs": [
        {
          "internalType": "address",
          "name": "sender",
          "type": "address"
        },
        {
          "internalType": "uint256",
          "name": "tokenId",
          "type": "uint256"
        },
        {
          "internalType": "address",
          "name": "owner",
          "type": "address"
        }
      ],
      "name": "ERC721IncorrectOwner",
      "type": "error"
    },
    {
      "inputs": [
        {
          "internalType": "address",
          "name": "operator",
          "type": "address"
        },
        {
          "internalType": "uint256",
          "name": "tokenId",
          "type": "uint256"
        }
      ],
      "name": "ERC721InsufficientApproval",
      "type": "error"
    },
    {
      "inputs": [
        {
          "internalType": "address",
          "name": "approver",
          "type": "address"
        }
      ],
      "name": "ERC721InvalidApprover",
      "type": "error"
    },
    {
      "inputs": [
        {
          "internalType": "address",
          "name": "operator",
          "type": "address"
        }
      ],
      "name": "ERC721InvalidOperator",
      "type": "error"
    },
    {
      "inputs": [
        {
          "internalType": "address",
          "name": "owner",
          "type": "address"
        }
      ],
      "name": "ERC721InvalidOwner",
      "type": "error"
    },
    {
      "inputs": [
        {
          "internalType": "address",
          "name": "receiver",
          "type": "address"
        }
      ],
      "name": "ERC721InvalidReceiver",
      "type": "error"
    },
    {
      "inputs": [
        {
          "internalType": "address",
          "name": "sender",
          "type": "address"
        }
      ],
      "name": "ERC721InvalidSender",
      "type": "error"
    },
    {
      "inputs": [
        {
          "internalType": "uint256",
          "name": "tokenId",
          "type": "uint256"
        }
      ],
      "name": "ERC721NonexistentToken",
      "type": "error"
    },
    {
      "inputs": [
        {
          "internalType": "address",
          "name": "owner",
          "type": "address"
        }
      ],
      "name": "OwnableInvalidOwner",
      "type": "error"
    },
    {
      "inputs": [
        {
          "internalType": "address",
          "name": "account",
          "type": "address"
        }
      ],
      "name": "OwnableUnauthorizedAccount",
      "type": "error"
    },
    {
      "anonymous": false,
      "inputs": [
        {
          "indexed": true,
          "internalType": "address",
          "name": "owner",
          "type": "address"
        },
        {
          "indexed": true,
          "internalType": "address",
          "name": "approved",
          "type": "address"
        },
        {
          "indexed": true,
          "internalType": "uint256",
          "name": "tokenId",
          "type": "uint256"
        }
      ],
      "name": "Approval",
      "type": "event"
    },
    {
      "anonymous": false,
      "inputs": [
        {
          "indexed": true,
          "internalType": "address",
          "name": "owner",
          "type": "address"
        },
        {
          "indexed": true,
          "internalType": "address",
          "name": "operator",
          "type": "address"
        },
        {
          "indexed": false,
          "internalType": "bool",
          "name": "approved",
          "type": "bool"
        }
      ],
      "name": "ApprovalForAll",
      "type": "event"
    },
    {
      "anonymous": false,
      "inputs": [
        {
          "indexed": true,
          "internalType": "address",
          "name": "previousOwner",
          "type": "address"
        },
        {
          "indexed": true,
          "internalType": "address",
          "name": "newOwner",
          "type": "address"
        }
      ],
      "name": "OwnershipTransferred",
      "type": "event"
    },
    {
      "anonymous": false,
      "inputs": [
        {
          "indexed": true,
          "internalType": "uint256",
          "name": "tokenId",
          "type": "uint256"
        },
        {
          "indexed": true,
          "internalType": "address",
          "name": "from",
          "type": "address"
        },
        {
          "indexed": true,
          "internalType": "address",
          "name": "to",
          "type": "address"
        },
        {
          "indexed": false,
          "internalType": "uint256",
          "name": "timestamp",
          "type": "uint256"
        }
      ],
      "name": "ResourceTransferred",
      "type": "event"
    },
    {
      "anonymous": false,
      "inputs": [
        {
          "indexed": true,
          "internalType": "address",
          "name": "from",
          "type": "address"
        },
        {
          "indexed": true,
          "internalType": "address",
          "name": "to",
          "type": "address"
        },
        {
          "indexed": true,
          "internalType": "uint256",
          "name": "tokenId",
          "type": "uint256"
        }
      ],
      "name": "Transfer",
      "type": "event"
    },
    {
      "inputs": [],
      "name": "COOLDOWN",
      "outputs": [
        {
          "internalType": "uint256",
          "name": "",
          "type": "uint256"
        }
      ],
      "stateMutability": "view",
      "type": "function",
      "constant": true
    },
    {
      "inputs": [],
      "name": "LOCK_TIME",
      "outputs": [
        {
          "internalType": "uint256",
          "name": "",
          "type": "uint256"
        }
      ],
      "stateMutability": "view",
      "type": "function",
      "constant": true
    },
    {
      "inputs": [],
      "name": "MAX_RESOURCES",
      "outputs": [
        {
          "internalType": "uint256",
          "name": "",
          "type": "uint256"
        }
      ],
      "stateMutability": "view",
      "type": "function",
      "constant": true
    },
    {
      "inputs": [
        {
          "internalType": "address",
          "name": "to",
          "type": "address"
        },
        {
          "internalType": "uint256",
          "name": "tokenId",
          "type": "uint256"
        }
      ],
      "name": "approve",
      "outputs": [],
      "stateMutability": "nonpayable",
      "type": "function"
    },
    {
      "inputs": [
        {
          "internalType": "address",
          "name": "owner",
          "type": "address"
        }
      ],
      "name": "balanceOf",
      "outputs": [
        {
          "internalType": "uint256",
          "name": "",
          "type": "uint256"
        }
      ],
      "stateMutability": "view",
      "type": "function",
      "constant": true
    },
    {
      "inputs": [
        {
          "internalType": "uint256",
          "name": "tokenId",
          "type": "uint256"
        }
      ],
      "name": "getApproved",
      "outputs": [
        {
          "internalType": "address",
          "name": "",
          "type": "address"
        }
      ],
      "stateMutability": "view",
      "type": "function",
      "constant": true
    },
    {
      "inputs": [
        {
          "internalType": "address",
          "name": "owner",
          "type": "address"
        },
        {
          "internalType": "address",
          "name": "operator",
          "type": "address"
        }
      ],
      "name": "isApprovedForAll",
      "outputs": [
        {
          "internalType": "bool",
          "name": "",
          "type": "bool"
        }
      ],
      "stateMutability": "view",
      "type": "function",
      "constant": true
    },
    {
      "inputs": [
        {
          "internalType": "address",
          "name": "",
          "type": "address"
        }
      ],
      "name": "lastActionTime",
      "outputs": [
        {
          "internalType": "uint256",
          "name": "",
          "type": "uint256"
        }
      ],
      "stateMutability": "view",
      "type": "function",
      "constant": true
    },
    {
      "inputs": [],
      "name": "name",
      "outputs": [
        {
          "internalType": "string",
          "name": "",
          "type": "string"
        }
      ],
      "stateMutability": "view",
      "type": "function",
      "constant": true
    },
    {
      "inputs": [],
      "name": "nextTokenId",
      "outputs": [
        {
          "internalType": "uint256",
          "name": "",
          "type": "uint256"
        }
      ],
      "stateMutability": "view",
      "type": "function",
      "constant": true
    },
    {
      "inputs": [],
      "name": "owner",
      "outputs": [
        {
          "internalType": "address",
          "name": "",
          "type": "address"
        }
      ],
      "stateMutability": "view",
      "type": "function",
      "constant": true
    },
    {
      "inputs": [
        {
          "internalType": "uint256",
          "name": "tokenId",
          "type": "uint256"
        }
      ],
      "name": "ownerOf",
      "outputs": [
        {
          "internalType": "address",
          "name": "",
          "type": "address"
        }
      ],
      "stateMutability": "view",
      "type": "function",
      "constant": true
    },
    {
      "inputs": [],
      "name": "renounceOwnership",
      "outputs": [],
      "stateMutability": "nonpayable",
      "type": "function"
    },
    {
      "inputs": [
        {
          "internalType": "address",
          "name": "",
          "type": "address"
        }
      ],
      "name": "resourceCount",
      "outputs": [
        {
          "internalType": "uint256",
          "name": "",
          "type": "uint256"
        }
      ],
      "stateMutability": "view",
      "type": "function",
      "constant": true
    },
    {
      "inputs": [
        {
          "internalType": "uint256",
          "name": "",
          "type": "uint256"
        }
      ],
      "name": "resources",
      "outputs": [
        {
          "internalType": "string",
          "name": "name",
          "type": "string"
        },
        {
          "internalType": "string",
          "name": "resourceType",
          "type": "string"
        },
        {
          "internalType": "uint256",
          "name": "value",
          "type": "uint256"
        },
        {
          "internalType": "string",
          "name": "ipfsHash",
          "type": "string"
        },
        {
          "internalType": "uint256",
          "name": "createdAt",
          "type": "uint256"
        },
        {
          "internalType": "uint256",
          "name": "lastTransferAt",
          "type": "uint256"
        }
      ],
      "stateMutability": "view",
      "type": "function",
      "constant": true
    },
    {
      "inputs": [
        {
          "internalType": "address",
          "name": "from",
          "type": "address"
        },
        {
          "internalType": "address",
          "name": "to",
          "type": "address"
        },
        {
          "internalType": "uint256",
          "name": "tokenId",
          "type": "uint256"
        }
      ],
      "name": "safeTransferFrom",
      "outputs": [],
      "stateMutability": "nonpayable",
      "type": "function"
    },
    {
      "inputs": [
        {
          "internalType": "address",
          "name": "from",
          "type": "address"
        },
        {
          "internalType": "address",
          "name": "to",
          "type": "address"
        },
        {
          "internalType": "uint256",
          "name": "tokenId",
          "type": "uint256"
        },
        {
          "internalType": "bytes",
          "name": "data",
          "type": "bytes"
        }
      ],
      "name": "safeTransferFrom",
      "outputs": [],
      "stateMutability": "nonpayable",
      "type": "function"
    },
    {
      "inputs": [
        {
          "internalType": "address",
          "name": "operator",
          "type": "address"
        },
        {
          "internalType": "bool",
          "name": "approved",
          "type": "bool"
        }
      ],
      "name": "setApprovalForAll",
      "outputs": [],
      "stateMutability": "nonpayable",
      "type": "function"
    },
    {
      "inputs": [
        {
          "internalType": "bytes4",
          "name": "interfaceId",
          "type": "bytes4"
        }
      ],
      "name": "supportsInterface",
      "outputs": [
        {
          "internalType": "bool",
          "name": "",
          "type": "bool"
        }
      ],
      "stateMutability": "view",
      "type": "function",
      "constant": true
    },
    {
      "inputs": [],
      "name": "symbol",
      "outputs": [
        {
          "internalType": "string",
          "name": "",
          "type": "string"
        }
      ],
      "stateMutability": "view",
      "type": "function",
      "constant": true
    },
    {
      "inputs": [
        {
          "internalType": "uint256",
          "name": "tokenId",
          "type": "uint256"
        }
      ],
      "name": "tokenURI",
      "outputs": [
        {
          "internalType": "string",
          "name": "",
          "type": "string"
        }
      ],
      "stateMutability": "view",
      "type": "function",
      "constant": true
    },
    {
      "inputs": [
        {
          "internalType": "address",
          "name": "from",
          "type": "address"
        },
        {
          "internalType": "address",
          "name": "to",
          "type": "address"
        },
        {
          "internalType": "uint256",
          "name": "tokenId",
          "type": "uint256"
        }
      ],
      "name": "transferFrom",
      "outputs": [],
      "stateMutability": "nonpayable",
      "type": "function"
    },
    {
      "inputs": [
        {
          "internalType": "address",
          "name": "newOwner",
          "type": "address"
        }
      ],
      "name": "transferOwnership",
      "outputs": [],
      "stateMutability": "nonpayable",
      "type": "function"
    },
    {
      "inputs": [
        {
          "internalType": "address",
          "name": "to",
          "type": "address"
        },
        {
          "internalType": "string",
          "name": "name",
          "type": "string"
        },
        {
          "internalType": "string",
          "name": "resourceType",
          "type": "string"
        },
        {
          "internalType": "uint256",
          "name": "value",
          "type": "uint256"
        },
        {
          "internalType": "string",
          "name": "ipfsHash",
          "type": "string"
        }
      ],
      "name": "mintResource",
      "outputs": [],
      "stateMutability": "nonpayable",
      "type": "function"
    },
    {
      "inputs": [
        {
          "internalType": "address",
          "name": "to",
          "type": "address"
        },
        {
          "internalType": "uint256",
          "name": "tokenId",
          "type": "uint256"
        }
      ],
      "name": "transferResource",
      "outputs": [],
      "stateMutability": "nonpayable",
      "type": "function"
    },
    {
      "inputs": [
        {
          "internalType": "uint256",
          "name": "tokenId",
          "type": "uint256"
        }
      ],
      "name": "getPreviousOwners",
      "outputs": [
        {
          "internalType": "address[]",
          "name": "",
          "type": "address[]"
        }
      ],
      "stateMutability": "view",
      "type": "function",
      "constant": true
    },
    {
      "inputs": [
        {
          "internalType": "uint256",
          "name": "tokenId",
          "type": "uint256"
        }
      ],
      "name": "getPreviousOwnersCount",
      "outputs": [
        {
          "internalType": "uint256",
          "name": "",
          "type": "uint256"
        }
      ],
      "stateMutability": "view",
      "type": "function",
      "constant": true
    }
  ],
  "bytecode": "0x60806040523480156200001157600080fd5b50336040518060400160405280600d81526020017f5265736f75726365436861696e000000000000000000000000000000000000008152506040518060400160405280600381526020017f5253430000000000000000000000000000000000000000000000000000000000815250816000908162000090919062000472565b508060019081620000a2919062000472565b505050600073ffffffffffffffffffffffffffffffffffffffff168173ffffffffffffffffffffffffffffffffffffffff16036200011a5760006040517f1e4fbdf70000000000000000000000000000000000000000000000000000000081526004016200011191906200059e565b60405180910390fd5b6200012b816200013260201b60201c565b50620005bb565b6000600660009054906101000a900473ffffffffffffffffffffffffffffffffffffffff16905081600660006101000a81548173ffffffffffffffffffffffffffffffffffffffff021916908373ffffffffffffffffffffffffffffffffffffffff1602179055508173ffffffffffffffffffffffffffffffffffffffff168173ffffffffffffffffffffffffffffffffffffffff167f8be0079c531659141344cd1fd0a4f28419497f9722a3daafe3b4186f6b6457e060405160405180910390a35050565b600081519050919050565b7f4e487b7100000000000000000000000000000000000000000000000000000000600052604160045260246000fd5b7f4e487b7100000000000000000000000000000000000000000000000000000000600052602260045260246000fd5b600060028204905060018216806200027a57607f821691505b60208210810362000290576200028f62000232565b5b50919050565b60008190508160005260206000209050919050565b60006020601f8301049050919050565b600082821b905092915050565b600060088302620002fa7fffffffffffffffffffffffffffffffffffffffffffffffffffffffffffffffff82620002bb565b620003068683620002bb565b95508019841693508086168417925050509392505050565b6000819050919050565b6000819050919050565b6000620003536200034d62000347846200031e565b62000328565b6200031e565b9050919050565b6000819050919050565b6200036f8362000332565b620003876200037e826200035a565b848454620002c8565b825550505050565b600090565b6200039e6200038f565b620003ab81848462000364565b505050565b5b81811015620003d357620003c760008262000394565b600181019050620003b1565b5050565b601f8211156200042257620003ec8162000296565b620003f784620002ab565b8101602085101562000407578190505b6200041f6200041685620002ab565b830182620003b0565b50505b505050565b600082821c905092915050565b6000620004476000198460080262000427565b1980831691505092915050565b600062000462838362000434565b9150826002028217905092915050565b6200047d82620001f8565b67ffffffffffffffff81111562000499576200049862000203565b5b620004a5825462000261565b620004b2828285620003d7565b600060209050601f831160018114620004ea5760008415620004d5578287015190505b620004e1858262000454565b86555062000551565b601f198416620004fa8662000296565b60005b828110156200052457848901518255600182019150602085019450602081019050620004fd565b8683101562000544578489015162000540601f89168262000434565b8355505b6001600288020188555050505b505050505050565b600073ffffffffffffffffffffffffffffffffffffffff82169050919050565b6000620005868262000559565b9050919050565b620005988162000579565b82525050565b6000602082019050620005b560008301846200058d565b92915050565b61347780620005cb6000396000f3fe608060405234801561001057600080fd5b50600436106101a95760003560e01c8063715018a6116100f9578063c87b56dd11610097578063f1a0995c11610071578063f1a0995c146104fb578063f2fde38b1461052b578063f77e72bc14610547578063ffd3406f14610563576101a9565b8063c87b56dd1461047d578063d5b6d486146104ad578063e985e9c5146104cb576101a9565b806395d89b41116100d357806395d89b4114610409578063a22cb46514610427578063a2724a4d14610443578063b88d4fde14610461576101a9565b8063715018a6146103c357806375794a3c146103cd5780638da5cb5b146103eb576101a9565b806327f0bfd611610166578063413d9c3a11610140578063413d9c3a1461032957806342842e0e146103475780636352211e1461036357806370a0823114610393576101a9565b806327f0bfd61461029957806331cae24a146102c957806333386854146102f9576101a9565b806301ffc9a7146101ae57806306fdde03146101de578063081812fc146101fc578063095ea7b31461022c57806323b872dd14610248578063244d6daa14610264575b600080fd5b6101c860048036038101906101c391906124f9565b61057f565b6040516101d59190612541565b60405180910390f35b6101e6610661565b6040516101f391906125ec565b60405180910390f35b61021660048036038101906102119190612644565b6106f3565b60405161022391906126b2565b60405180910390f35b610246600480360381019061024191906126f9565b61070f565b005b610262600480360381019061025d9190612739565b610725565b005b61027e60048036038101906102799190612644565b610827565b6040516102909695949392919061279b565b60405180910390f35b6102b360048036038101906102ae9190612811565b6109fb565b6040516102c0919061283e565b60405180910390f35b6102e360048036038101906102de9190612644565b610a13565b6040516102f0919061283e565b60405180910390f35b610313600480360381019061030e9190612811565b610a36565b604051610320919061283e565b60405180910390f35b610331610a4e565b60405161033e919061283e565b60405180910390f35b610361600480360381019061035c9190612739565b610a53565b005b61037d60048036038101906103789190612644565b610a73565b60405161038a91906126b2565b60405180910390f35b6103ad60048036038101906103a89190612811565b610a85565b6040516103ba919061283e565b60405180910390f35b6103cb610b3f565b005b6103d5610b53565b6040516103e2919061283e565b60405180910390f35b6103f3610b59565b60405161040091906126b2565b60405180910390f35b610411610b83565b60405161041e91906125ec565b60405180910390f35b610441600480360381019061043c9190612885565b610c15565b005b61044b610c2b565b604051610458919061283e565b60405180910390f35b61047b600480360381019061047691906129fa565b610c30565b005b61049760048036038101906104929190612644565b610c55565b6040516104a491906125ec565b60405180910390f35b6104b5610cbe565b6040516104c2919061283e565b60405180910390f35b6104e560048036038101906104e09190612a7d565b610cc3565b6040516104f29190612541565b60405180910390f35b61051560048036038101906105109190612644565b610d57565b6040516105229190612b7b565b60405180910390f35b61054560048036038101906105409190612811565b610dfb565b005b610561600480360381019061055c91906126f9565b610e81565b005b61057d60048036038101906105789190612c3e565b6111e3565b005b60007f80ac58cd000000000000000000000000000000000000000000000000000000007bffffffffffffffffffffffffffffffffffffffffffffffffffffffff1916827bffffffffffffffffffffffffffffffffffffffffffffffffffffffff1916148061064a57507f5b5e139f000000000000000000000000000000000000000000000000000000007bffffffffffffffffffffffffffffffffffffffffffffffffffffffff1916827bffffffffffffffffffffffffffffffffffffffffffffffffffffffff1916145b8061065a575061065982611431565b5b9050919050565b60606000805461067090612d3c565b80601f016020809104026020016040519081016040528092919081815260200182805461069c90612d3c565b80156106e95780601f106106be576101008083540402835291602001916106e9565b820191906000526020600020905b8154815290600101906020018083116106cc57829003601f168201915b5050505050905090565b60006106fe8261149b565b5061070882611523565b9050919050565b610721828261071c611560565b611568565b5050565b600073ffffffffffffffffffffffffffffffffffffffff168273ffffffffffffffffffffffffffffffffffffffff16036107975760006040517f64a0ae9200000000000000000000000000000000000000000000000000000000815260040161078e91906126b2565b60405180910390fd5b60006107ab83836107a6611560565b61157a565b90508373ffffffffffffffffffffffffffffffffffffffff168173ffffffffffffffffffffffffffffffffffffffff1614610821578382826040517f64283d7b00000000000000000000000000000000000000000000000000000000815260040161081893929190612d6d565b60405180910390fd5b50505050565b600860205280600052604060002060009150905080600001805461084a90612d3c565b80601f016020809104026020016040519081016040528092919081815260200182805461087690612d3c565b80156108c35780601f10610898576101008083540402835291602001916108c3565b820191906000526020600020905b8154815290600101906020018083116108a657829003601f168201915b5050505050908060010180546108d890612d3c565b80601f016020809104026020016040519081016040528092919081815260200182805461090490612d3c565b80156109515780601f1061092657610100808354040283529160200191610951565b820191906000526020600020905b81548152906001019060200180831161093457829003601f168201915b50505050509080600201549080600301805461096c90612d3c565b80601f016020809104026020016040519081016040528092919081815260200182805461099890612d3c565b80156109e55780601f106109ba576101008083540402835291602001916109e5565b820191906000526020600020905b8154815290600101906020018083116109c857829003601f168201915b5050505050908060050154908060060154905086565b600a6020528060005260406000206000915090505481565b600060086000838152602001908152602001600020600401805490509050919050565b60096020528060005260406000206000915090505481565b603c81565b610a6e83838360405180602001604052806000815250610c30565b505050565b6000610a7e8261149b565b9050919050565b60008073ffffffffffffffffffffffffffffffffffffffff168273ffffffffffffffffffffffffffffffffffffffff1603610af85760006040517f89c62b64000000000000000000000000000000000000000000000000000000008152600401610aef91906126b2565b60405180910390fd5b600360008373ffffffffffffffffffffffffffffffffffffffff1673ffffffffffffffffffffffffffffffffffffffff168152602001908152602001600020549050919050565b610b47611794565b610b51600061181b565b565b60075481565b6000600660009054906101000a900473ffffffffffffffffffffffffffffffffffffffff16905090565b606060018054610b9290612d3c565b80601f0160208091040260200160405190810160405280929190818152602001828054610bbe90612d3c565b8015610c0b5780601f10610be057610100808354040283529160200191610c0b565b820191906000526020600020905b815481529060010190602001808311610bee57829003601f168201915b5050505050905090565b610c27610c20611560565b83836118e1565b5050565b603c81565b610c3b848484610725565b610c4f610c46611560565b85858585611a50565b50505050565b6060610c608261149b565b506000610c6b611c01565b90506000815111610c8b5760405180602001604052806000815250610cb6565b80610c9584611c18565b604051602001610ca6929190612de0565b6040516020818303038152906040525b915050919050565b600481565b6000600560008473ffffffffffffffffffffffffffffffffffffffff1673ffffffffffffffffffffffffffffffffffffffff16815260200190815260200160002060008373ffffffffffffffffffffffffffffffffffffffff1673ffffffffffffffffffffffffffffffffffffffff16815260200190815260200160002060009054906101000a900460ff16905092915050565b606060086000838152602001908152602001600020600401805480602002602001604051908101604052809291908181526020018280548015610def57602002820191906000526020600020905b8160009054906101000a900473ffffffffffffffffffffffffffffffffffffffff1673ffffffffffffffffffffffffffffffffffffffff1681526020019060010190808311610da5575b50505050509050919050565b610e03611794565b600073ffffffffffffffffffffffffffffffffffffffff168173ffffffffffffffffffffffffffffffffffffffff1603610e755760006040517f1e4fbdf7000000000000000000000000000000000000000000000000000000008152600401610e6c91906126b2565b60405180910390fd5b610e7e8161181b565b50565b3373ffffffffffffffffffffffffffffffffffffffff16610ea182610a73565b73ffffffffffffffffffffffffffffffffffffffff1614610ef7576040517f08c379a0000000000000000000000000000000000000000000000000000000008152600401610eee90612e50565b60405180910390fd5b6004600960008473ffffffffffffffffffffffffffffffffffffffff1673ffffffffffffffffffffffffffffffffffffffff1681526020019081526020016000205410610f79576040517f08c379a0000000000000000000000000000000000000000000000000000000008152600401610f7090612ebc565b60405180910390fd5b603c6008600083815260200190815260200160002060060154610f9c9190612f0b565b421015610fde576040517f08c379a0000000000000000000000000000000000000000000000000000000008152600401610fd590612f8b565b60405180910390fd5b60086000828152602001908152602001600020600401339080600181540180825580915050600190039060005260206000200160009091909190916101000a81548173ffffffffffffffffffffffffffffffffffffffff021916908373ffffffffffffffffffffffffffffffffffffffff160217905550426008600083815260200190815260200160002060060181905550600960003373ffffffffffffffffffffffffffffffffffffffff1673ffffffffffffffffffffffffffffffffffffffff16815260200190815260200160002060008154809291906110c090612fab565b9190505550600960008373ffffffffffffffffffffffffffffffffffffffff1673ffffffffffffffffffffffffffffffffffffffff168152602001908152602001600020600081548092919061111590612fd4565b919050555042600a60008473ffffffffffffffffffffffffffffffffffffffff1673ffffffffffffffffffffffffffffffffffffffff1681526020019081526020016000208190555061117933838360405180602001604052806000815250611ce6565b8173ffffffffffffffffffffffffffffffffffffffff163373ffffffffffffffffffffffffffffffffffffffff16827fb3a16f08dba0a753f77c6cff91067a0d0a4b6207ccc4b67de47d30526a43f48b426040516111d7919061283e565b60405180910390a45050565b6111eb611794565b33603c600a60008373ffffffffffffffffffffffffffffffffffffffff1673ffffffffffffffffffffffffffffffffffffffff168152602001908152602001600020546112389190612f0b565b42101561127a576040517f08c379a000000000000000000000000000000000000000000000000000000000815260040161127190613068565b60405180910390fd5b6004600960008873ffffffffffffffffffffffffffffffffffffffff1673ffffffffffffffffffffffffffffffffffffffff16815260200190815260200160002054106112fc576040517f08c379a00000000000000000000000000000000000000000000000000000000081526004016112f390612ebc565b60405180910390fd5b600060075490506007600081548092919061131690612fd4565b91905055506113258782611d0b565b60006008600083815260200190815260200160002090508681600001908161134d9190613234565b508581600101908161135f9190613234565b508481600201819055508381600301908161137a9190613234565b5042816005018190555060008160060181905550600960008973ffffffffffffffffffffffffffffffffffffffff1673ffffffffffffffffffffffffffffffffffffffff16815260200190815260200160002060008154809291906113de90612fd4565b919050555042600a60008a73ffffffffffffffffffffffffffffffffffffffff1673ffffffffffffffffffffffffffffffffffffffff168152602001908152602001600020819055505050505050505050565b60007f01ffc9a7000000000000000000000000000000000000000000000000000000007bffffffffffffffffffffffffffffffffffffffffffffffffffffffff1916827bffffffffffffffffffffffffffffffffffffffffffffffffffffffff1916149050919050565b6000806114a783611d29565b9050600073ffffffffffffffffffffffffffffffffffffffff168173ffffffffffffffffffffffffffffffffffffffff160361151a57826040517f7e273289000000000000000000000000000000000000000000000000000000008152600401611511919061283e565b60405180910390fd5b80915050919050565b60006004600083815260200190815260200160002060009054906101000a900473ffffffffffffffffffffffffffffffffffffffff169050919050565b600033905090565b6115758383836001611d66565b505050565b60008061158684611d29565b9050600073ffffffffffffffffffffffffffffffffffffffff168373ffffffffffffffffffffffffffffffffffffffff16146115c8576115c7818486611f2b565b5b600073ffffffffffffffffffffffffffffffffffffffff168173ffffffffffffffffffffffffffffffffffffffff16146116595761160a600085600080611d66565b6001600360008373ffffffffffffffffffffffffffffffffffffffff1673ffffffffffffffffffffffffffffffffffffffff168152602001908152602001600020600082825403925050819055505b600073ffffffffffffffffffffffffffffffffffffffff168573ffffffffffffffffffffffffffffffffffffffff16146116dc576001600360008773ffffffffffffffffffffffffffffffffffffffff1673ffffffffffffffffffffffffffffffffffffffff168152602001908152602001600020600082825401925050819055505b846002600086815260200190815260200160002060006101000a81548173ffffffffffffffffffffffffffffffffffffffff021916908373ffffffffffffffffffffffffffffffffffffffff160217905550838573ffffffffffffffffffffffffffffffffffffffff168273ffffffffffffffffffffffffffffffffffffffff167fddf252ad1be2c89b69c2b068fc378daa952ba7f163c4a11628f55a4df523b3ef60405160405180910390a4809150509392505050565b61179c611560565b73ffffffffffffffffffffffffffffffffffffffff166117ba610b59565b73ffffffffffffffffffffffffffffffffffffffff1614611819576117dd611560565b6040517f118cdaa700000000000000000000000000000000000000000000000000000000815260040161181091906126b2565b60405180910390fd5b565b6000600660009054906101000a900473ffffffffffffffffffffffffffffffffffffffff16905081600660006101000a81548173ffffffffffffffffffffffffffffffffffffffff021916908373ffffffffffffffffffffffffffffffffffffffff1602179055508173ffffffffffffffffffffffffffffffffffffffff168173ffffffffffffffffffffffffffffffffffffffff167f8be0079c531659141344cd1fd0a4f28419497f9722a3daafe3b4186f6b6457e060405160405180910390a35050565b600073ffffffffffffffffffffffffffffffffffffffff168273ffffffffffffffffffffffffffffffffffffffff160361195257816040517f5b08ba1800000000000000000000000000000000000000000000000000000000815260040161194991906126b2565b60405180910390fd5b80600560008573ffffffffffffffffffffffffffffffffffffffff1673ffffffffffffffffffffffffffffffffffffffff16815260200190815260200160002060008473ffffffffffffffffffffffffffffffffffffffff1673ffffffffffffffffffffffffffffffffffffffff16815260200190815260200160002060006101000a81548160ff0219169083151502179055508173ffffffffffffffffffffffffffffffffffffffff168373ffffffffffffffffffffffffffffffffffffffff167f17307eab39ab6107e8899845ad3d59bd9653f200f220920489ca2b5937696c3183604051611a439190612541565b60405180910390a3505050565b60008373ffffffffffffffffffffffffffffffffffffffff163b1115611bfa578273ffffffffffffffffffffffffffffffffffffffff1663150b7a02868685856040518563ffffffff1660e01b8152600401611aaf949392919061335b565b6020604051808303816000875af1925050508015611aeb57506040513d601f19601f82011682018060405250810190611ae891906133bc565b60015b611b6f573d8060008114611b1b576040519150601f19603f3d011682016040523d82523d6000602084013e611b20565b606091505b506000815103611b6757836040517f64a0ae92000000000000000000000000000000000000000000000000000000008152600401611b5e91906126b2565b60405180910390fd5b805160208201fd5b63150b7a0260e01b7bffffffffffffffffffffffffffffffffffffffffffffffffffffffff1916817bffffffffffffffffffffffffffffffffffffffffffffffffffffffff191614611bf857836040517f64a0ae92000000000000000000000000000000000000000000000000000000008152600401611bef91906126b2565b60405180910390fd5b505b5050505050565b606060405180602001604052806000815250905090565b606060006001611c2784611fef565b01905060008167ffffffffffffffff811115611c4657611c456128cf565b5b6040519080825280601f01601f191660200182016040528015611c785781602001600182028036833780820191505090505b509050600082602083010190505b600115611cdb578080600190039150507f3031323334353637383961626364656600000000000000000000000000000000600a86061a8153600a8581611ccf57611cce6133e9565b5b04945060008503611c86575b819350505050919050565b611cf1848484612142565b611d05611cfc611560565b85858585611a50565b50505050565b611d258282604051806020016040528060008152506122af565b5050565b60006002600083815260200190815260200160002060009054906101000a900473ffffffffffffffffffffffffffffffffffffffff169050919050565b8080611d9f5750600073ffffffffffffffffffffffffffffffffffffffff168273ffffffffffffffffffffffffffffffffffffffff1614155b15611ed3576000611daf8461149b565b9050600073ffffffffffffffffffffffffffffffffffffffff168373ffffffffffffffffffffffffffffffffffffffff1614158015611e1a57508273ffffffffffffffffffffffffffffffffffffffff168173ffffffffffffffffffffffffffffffffffffffff1614155b8015611e2d5750611e2b8184610cc3565b155b15611e6f57826040517fa9fbf51f000000000000000000000000000000000000000000000000000000008152600401611e6691906126b2565b60405180910390fd5b8115611ed157838573ffffffffffffffffffffffffffffffffffffffff168273ffffffffffffffffffffffffffffffffffffffff167f8c5be1e5ebec7d5bd14f71427d1e84f3dd0314c0f7b2291e5b200ac8c7c3b92560405160405180910390a45b505b836004600085815260200190815260200160002060006101000a81548173ffffffffffffffffffffffffffffffffffffffff021916908373ffffffffffffffffffffffffffffffffffffffff16021790555050505050565b611f368383836122d3565b611fea57600073ffffffffffffffffffffffffffffffffffffffff168373ffffffffffffffffffffffffffffffffffffffff1603611fab57806040517f7e273289000000000000000000000000000000000000000000000000000000008152600401611fa2919061283e565b60405180910390fd5b81816040517f177e802f000000000000000000000000000000000000000000000000000000008152600401611fe1929190613418565b60405180910390fd5b505050565b600080600090507a184f03e93ff9f4daa797ed6e38ed64bf6a1f010000000000000000831061204d577a184f03e93ff9f4daa797ed6e38ed64bf6a1f0100000000000000008381612043576120426133e9565b5b0492506040810190505b6d04ee2d6d415b85acef8100000000831061208a576d04ee2d6d415b85acef810000000083816120805761207f6133e9565b5b0492506020810190505b662386f26fc1000083106120b957662386f26fc1000083816120af576120ae6133e9565b5b0492506010810190505b6305f5e10083106120e2576305f5e10083816120d8576120d76133e9565b5b0492506008810190505b61271083106121075761271083816120fd576120fc6133e9565b5b0492506004810190505b6064831061212a57606483816121205761211f6133e9565b5b0492506002810190505b600a8310612139576001810190505b80915050919050565b600073ffffffffffffffffffffffffffffffffffffffff168273ffffffffffffffffffffffffffffffffffffffff16036121b45760006040517f64a0ae920000000000000000000000000000000000000000000000000000000081526004016121ab91906126b2565b60405180910390fd5b60006121c28383600061157a565b9050600073ffffffffffffffffffffffffffffffffffffffff168173ffffffffffffffffffffffffffffffffffffffff160361223557816040517f7e27328900000000000000000000000000000000000000000000000000000000815260040161222c919061283e565b60405180910390fd5b8373ffffffffffffffffffffffffffffffffffffffff168173ffffffffffffffffffffffffffffffffffffffff16146122a9578382826040517f64283d7b0000000000000000000000000000000000000000000000000000000081526004016122a093929190612d6d565b60405180910390fd5b50505050565b6122b98383612394565b6122ce6122c4611560565b6000858585611a50565b505050565b60008073ffffffffffffffffffffffffffffffffffffffff168373ffffffffffffffffffffffffffffffffffffffff161415801561238b57508273ffffffffffffffffffffffffffffffffffffffff168473ffffffffffffffffffffffffffffffffffffffff16148061234c575061234b8484610cc3565b5b8061238a57508273ffffffffffffffffffffffffffffffffffffffff1661237283611523565b73ffffffffffffffffffffffffffffffffffffffff16145b5b90509392505050565b600073ffffffffffffffffffffffffffffffffffffffff168273ffffffffffffffffffffffffffffffffffffffff16036124065760006040517f64a0ae920000000000000000000000000000000000000000000000000000000081526004016123fd91906126b2565b60405180910390fd5b60006124148383600061157a565b9050600073ffffffffffffffffffffffffffffffffffffffff168173ffffffffffffffffffffffffffffffffffffffff16146124885760006040517f73c6ac6e00000000000000000000000000000000000000000000000000000000815260040161247f91906126b2565b60405180910390fd5b505050565b6000604051905090565b600080fd5b600080fd5b60007fffffffff0000000000000000000000000000000000000000000000000000000082169050919050565b6124d6816124a1565b81146124e157600080fd5b50565b6000813590506124f3816124cd565b92915050565b60006020828403121561250f5761250e612497565b5b600061251d848285016124e4565b91505092915050565b60008115159050919050565b61253b81612526565b82525050565b60006020820190506125566000830184612532565b92915050565b600081519050919050565b600082825260208201905092915050565b60005b8381101561259657808201518184015260208101905061257b565b60008484015250505050565b6000601f19601f8301169050919050565b60006125be8261255c565b6125c88185612567565b93506125d8818560208601612578565b6125e1816125a2565b840191505092915050565b6000602082019050818103600083015261260681846125b3565b905092915050565b6000819050919050565b6126218161260e565b811461262c57600080fd5b50565b60008135905061263e81612618565b92915050565b60006020828403121561265a57612659612497565b5b60006126688482850161262f565b91505092915050565b600073ffffffffffffffffffffffffffffffffffffffff82169050919050565b600061269c82612671565b9050919050565b6126ac81612691565b82525050565b60006020820190506126c760008301846126a3565b92915050565b6126d681612691565b81146126e157600080fd5b50565b6000813590506126f3816126cd565b92915050565b600080604083850312156127105761270f612497565b5b600061271e858286016126e4565b925050602061272f8582860161262f565b9150509250929050565b60008060006060848603121561275257612751612497565b5b6000612760868287016126e4565b9350506020612771868287016126e4565b92505060406127828682870161262f565b9150509250925092565b6127958161260e565b82525050565b600060c08201905081810360008301526127b581896125b3565b905081810360208301526127c981886125b3565b90506127d8604083018761278c565b81810360608301526127ea81866125b3565b90506127f9608083018561278c565b61280660a083018461278c565b979650505050505050565b60006020828403121561282757612826612497565b5b6000612835848285016126e4565b91505092915050565b6000602082019050612853600083018461278c565b92915050565b61286281612526565b811461286d57600080fd5b50565b60008135905061287f81612859565b92915050565b6000806040838503121561289c5761289b612497565b5b60006128aa858286016126e4565b92505060206128bb85828601612870565b9150509250929050565b600080fd5b600080fd5b7f4e487b7100000000000000000000000000000000000000000000000000000000600052604160045260246000fd5b612907826125a2565b810181811067ffffffffffffffff82111715612926576129256128cf565b5b80604052505050565b600061293961248d565b905061294582826128fe565b919050565b600067ffffffffffffffff821115612965576129646128cf565b5b61296e826125a2565b9050602081019050919050565b82818337600083830152505050565b600061299d6129988461294a565b61292f565b9050828152602081018484840111156129b9576129b86128ca565b5b6129c484828561297b565b509392505050565b600082601f8301126129e1576129e06128c5565b5b81356129f184826020860161298a565b91505092915050565b60008060008060808587031215612a1457612a13612497565b5b6000612a22878288016126e4565b9450506020612a33878288016126e4565b9350506040612a448782880161262f565b925050606085013567ffffffffffffffff811115612a6557612a6461249c565b5b612a71878288016129cc565b91505092959194509250565b60008060408385031215612a9457612a93612497565b5b6000612aa2858286016126e4565b9250506020612ab3858286016126e4565b9150509250929050565b600081519050919050565b600082825260208201905092915050565b6000819050602082019050919050565b612af281612691565b82525050565b6000612b048383612ae9565b60208301905092915050565b6000602082019050919050565b6000612b2882612abd565b612b328185612ac8565b9350612b3d83612ad9565b8060005b83811015612b6e578151612b558882612af8565b9750612b6083612b10565b925050600181019050612b41565b5085935050505092915050565b60006020820190508181036000830152612b958184612b1d565b905092915050565b600067ffffffffffffffff821115612bb857612bb76128cf565b5b612bc1826125a2565b9050602081019050919050565b6000612be1612bdc84612b9d565b61292f565b905082815260208101848484011115612bfd57612bfc6128ca565b5b612c0884828561297b565b509392505050565b600082601f830112612c2557612c246128c5565b5b8135612c35848260208601612bce565b91505092915050565b600080600080600060a08688031215612c5a57612c59612497565b5b6000612c68888289016126e4565b955050602086013567ffffffffffffffff811115612c8957612c8861249c565b5b612c9588828901612c10565b945050604086013567ffffffffffffffff811115612cb657612cb561249c565b5b612cc288828901612c10565b9350506060612cd38882890161262f565b925050608086013567ffffffffffffffff811115612cf457612cf361249c565b5b612d0088828901612c10565b9150509295509295909350565b7f4e487b7100000000000000000000000000000000000000000000000000000000600052602260045260246000fd5b60006002820490506001821680612d5457607f821691505b602082108103612d6757612d66612d0d565b5b50919050565b6000606082019050612d8260008301866126a3565b612d8f602083018561278c565b612d9c60408301846126a3565b949350505050565b600081905092915050565b6000612dba8261255c565b612dc48185612da4565b9350612dd4818560208601612578565b80840191505092915050565b6000612dec8285612daf565b9150612df88284612daf565b91508190509392505050565b7f5061732070726f70726965746169726500000000000000000000000000000000600082015250565b6000612e3a601083612567565b9150612e4582612e04565b602082019050919050565b60006020820190508181036000830152612e6981612e2d565b9050919050565b7f4c696d6974652061747465696e74650000000000000000000000000000000000600082015250565b6000612ea6600f83612567565b9150612eb182612e70565b602082019050919050565b60006020820190508181036000830152612ed581612e99565b9050919050565b7f4e487b7100000000000000000000000000000000000000000000000000000000600052601160045260246000fd5b6000612f168261260e565b9150612f218361260e565b9250828201905080821115612f3957612f38612edc565b5b92915050565b7f526573736f7572636520766572726f75696c6c65650000000000000000000000600082015250565b6000612f75601583612567565b9150612f8082612f3f565b602082019050919050565b60006020820190508181036000830152612fa481612f68565b9050919050565b6000612fb68261260e565b915060008203612fc957612fc8612edc565b5b600182039050919050565b6000612fdf8261260e565b91507fffffffffffffffffffffffffffffffffffffffffffffffffffffffffffffffff820361301157613010612edc565b5b600182019050919050565b7f436f6f6c646f776e206163746966000000000000000000000000000000000000600082015250565b6000613052600e83612567565b915061305d8261301c565b602082019050919050565b6000602082019050818103600083015261308181613045565b9050919050565b60008190508160005260206000209050919050565b60006020601f8301049050919050565b600082821b905092915050565b6000600883026130ea7fffffffffffffffffffffffffffffffffffffffffffffffffffffffffffffffff826130ad565b6130f486836130ad565b95508019841693508086168417925050509392505050565b6000819050919050565b600061313161312c6131278461260e565b61310c565b61260e565b9050919050565b6000819050919050565b61314b83613116565b61315f61315782613138565b8484546130ba565b825550505050565b600090565b613174613167565b61317f818484613142565b505050565b5b818110156131a35761319860008261316c565b600181019050613185565b5050565b601f8211156131e8576131b981613088565b6131c28461309d565b810160208510156131d1578190505b6131e56131dd8561309d565b830182613184565b50505b505050565b600082821c905092915050565b600061320b600019846008026131ed565b1980831691505092915050565b600061322483836131fa565b9150826002028217905092915050565b61323d8261255c565b67ffffffffffffffff811115613256576132556128cf565b5b6132608254612d3c565b61326b8282856131a7565b600060209050601f83116001811461329e576000841561328c578287015190505b6132968582613218565b8655506132fe565b601f1984166132ac86613088565b60005b828110156132d4578489015182556001820191506020850194506020810190506132af565b868310156132f157848901516132ed601f8916826131fa565b8355505b6001600288020188555050505b505050505050565b600081519050919050565b600082825260208201905092915050565b600061332d82613306565b6133378185613311565b9350613347818560208601612578565b613350816125a2565b840191505092915050565b600060808201905061337060008301876126a3565b61337d60208301866126a3565b61338a604083018561278c565b818103606083015261339c8184613322565b905095945050505050565b6000815190506133b6816124cd565b92915050565b6000602082840312156133d2576133d1612497565b5b60006133e0848285016133a7565b91505092915050565b7f4e487b7100000000000000000000000000000000000000000000000000000000600052601260045260246000fd5b600060408201905061342d60008301856126a3565b61343a602083018461278c565b939250505056fea2646970667358221220adc0bdad917f1bd29bb3610476439b9fca6276523a8619a78826ed971339073264736f6c63430008150033",
  "immutableReferences": {},
  "source": "// SPDX-License-Identifier: MIT\npragma solidity ^0.8.20;\n\nimport \"@openzeppelin/contracts/token/ERC721/ERC721.sol\";\nimport \"@openzeppelin/contracts/access/Ownable.sol\";\n\ncontract ResourceToken is ERC721, Ownable {\n\n    uint256 public nextTokenId;\n\n    uint256 public constant MAX_RESOURCES = 4;\n    uint256 public constant COOLDOWN = 1 minutes;\n    uint256 public constant LOCK_TIME = 1 minutes;\n\n    struct Resource {\n        string name;\n        string resourceType;\n        uint256 value;\n        string ipfsHash;\n        address[] previousOwners;\n        uint256 createdAt;\n        uint256 lastTransferAt;\n    }\n\n    event ResourceTransferred(\n        uint256 indexed tokenId,\n        address indexed from,\n        address indexed to,\n        uint256 timestamp\n    );\n\n    mapping(uint256 => Resource) public resources;\n    mapping(address => uint256) public resourceCount;\n    mapping(address => uint256) public lastActionTime;\n\n    constructor() ERC721(\"ResourceChain\", \"RSC\") Ownable(msg.sender) {}\n\n    // --- MODIFIERS ---\n    modifier cooldownPassed(address user) {\n        require(\n            block.timestamp >= lastActionTime[user] + COOLDOWN,\n            \"Cooldown actif\"\n        );\n        _;\n    }\n\n    // --- MINT ---\n    function mintResource(\n    address to,\n    string memory name,\n    string memory resourceType,\n    uint256 value,\n    string memory ipfsHash\n)\n    public\n    onlyOwner\n    cooldownPassed(msg.sender)\n{\n    require(resourceCount[to] < MAX_RESOURCES, \"Limite atteinte\");\n\n    uint256 tokenId = nextTokenId;\n    nextTokenId++;\n\n    _safeMint(to, tokenId);\n\n    Resource storage r = resources[tokenId];\n    r.name = name;\n    r.resourceType = resourceType;\n    r.value = value;\n    r.ipfsHash = ipfsHash;\n    r.createdAt = block.timestamp;\n    r.lastTransferAt = 0; \n\n    resourceCount[to]++;\n    lastActionTime[to] = block.timestamp;\n}\n\n\n    // --- TRANSFER AVEC REGLES METIER ---\n    function transferResource(address to, uint256 tokenId)\n    public\n{\n    require(ownerOf(tokenId) == msg.sender, \"Pas proprietaire\");\n    require(resourceCount[to] < MAX_RESOURCES, \"Limite atteinte\");\n    require(\n        block.timestamp >= resources[tokenId].lastTransferAt + LOCK_TIME,\n        \"Ressource verrouillee\"\n    );\n\n    resources[tokenId].previousOwners.push(msg.sender);\n    resources[tokenId].lastTransferAt = block.timestamp;\n\n    resourceCount[msg.sender]--;\n    resourceCount[to]++;\n\n    lastActionTime[to] = block.timestamp; // optionnel\n\n    _safeTransfer(msg.sender, to, tokenId, \"\");\n\n    emit ResourceTransferred(tokenId, msg.sender, to, block.timestamp);\n}\n\n    function getPreviousOwners(uint256 tokenId)\n        public\n        view\n        returns (address[] memory)\n    {\n        return resources[tokenId].previousOwners;\n    }\n\n    function getPreviousOwnersCount(uint256 tokenId)\n        public\n        view\n        returns (uint256)\n    {\n        return resources[tokenId].previousOwners.length;\n    }\n}\n",
  "sourcePath": "C:\\Users\\ndiam\\OneDrive\\Bureau\\5dev\\5Bloc\\resourcechain\\contracts\\ResourceToken.sol",
  "compiler": {
    "name": "solc",
    "version": "0.8.21+commit.d9974bed.Emscripten.clang"
  },
  "schemaVersion": "3.4.16",
  "updatedAt": "2026-02-02T09:26:15.174Z",
  "networkType": "ethereum",
  "devdoc": {
    "errors": {
      "ERC721IncorrectOwner(address,uint256,address)": [
        {
          "details": "Indicates an error related to the ownership over a particular token. Used in transfers.",
          "params": {
            "owner": "Address of the current owner of a token.",
            "sender": "Address whose tokens are being transferred.",
            "tokenId": "Identifier number of a token."
          }
        }
      ],
      "ERC721InsufficientApproval(address,uint256)": [
        {
          "details": "Indicates a failure with the `operator`s approval. Used in transfers.",
          "params": {
            "operator": "Address that may be allowed to operate on tokens without being their owner.",
            "tokenId": "Identifier number of a token."
          }
        }
      ],
      "ERC721InvalidApprover(address)": [
        {
          "details": "Indicates a failure with the `approver` of a token to be approved. Used in approvals.",
          "params": {
            "approver": "Address initiating an approval operation."
          }
        }
      ],
      "ERC721InvalidOperator(address)": [
        {
          "details": "Indicates a failure with the `operator` to be approved. Used in approvals.",
          "params": {
            "operator": "Address that may be allowed to operate on tokens without being their owner."
          }
        }
      ],
      "ERC721InvalidOwner(address)": [
        {
          "details": "Indicates that an address can't be an owner. For example, `address(0)` is a forbidden owner in ERC-20. Used in balance queries.",
          "params": {
            "owner": "Address of the current owner of a token."
          }
        }
      ],
      "ERC721InvalidReceiver(address)": [
        {
          "details": "Indicates a failure with the token `receiver`. Used in transfers.",
          "params": {
            "receiver": "Address to which tokens are being transferred."
          }
        }
      ],
      "ERC721InvalidSender(address)": [
        {
          "details": "Indicates a failure with the token `sender`. Used in transfers.",
          "params": {
            "sender": "Address whose tokens are being transferred."
          }
        }
      ],
      "ERC721NonexistentToken(uint256)": [
        {
          "details": "Indicates a `tokenId` whose `owner` is the zero address.",
          "params": {
            "tokenId": "Identifier number of a token."
          }
        }
      ],
      "OwnableInvalidOwner(address)": [
        {
          "details": "The owner is not a valid owner account. (eg. `address(0)`)"
        }
      ],
      "OwnableUnauthorizedAccount(address)": [
        {
          "details": "The caller account is not authorized to perform an operation."
        }
      ]
    },
    "events": {
      "Approval(address,address,uint256)": {
        "details": "Emitted when `owner` enables `approved` to manage the `tokenId` token."
      },
      "ApprovalForAll(address,address,bool)": {
        "details": "Emitted when `owner` enables or disables (`approved`) `operator` to manage all of its assets."
      },
      "Transfer(address,address,uint256)": {
        "details": "Emitted when `tokenId` token is transferred from `from` to `to`."
      }
    },
    "kind": "dev",
    "methods": {
      "approve(address,uint256)": {
        "details": "Gives permission to `to` to transfer `tokenId` token to another account. The approval is cleared when the token is transferred. Only a single account can be approved at a time, so approving the zero address clears previous approvals. Requirements: - The caller must own the token or be an approved operator. - `tokenId` must exist. Emits an {Approval} event."
      },
      "balanceOf(address)": {
        "details": "Returns the number of tokens in ``owner``'s account."
      },
      "getApproved(uint256)": {
        "details": "Returns the account approved for `tokenId` token. Requirements: - `tokenId` must exist."
      },
      "isApprovedForAll(address,address)": {
        "details": "Returns if the `operator` is allowed to manage all of the assets of `owner`. See {setApprovalForAll}"
      },
      "name()": {
        "details": "Returns the token collection name."
      },
      "owner()": {
        "details": "Returns the address of the current owner."
      },
      "ownerOf(uint256)": {
        "details": "Returns the owner of the `tokenId` token. Requirements: - `tokenId` must exist."
      },
      "renounceOwnership()": {
        "details": "Leaves the contract without owner. It will not be possible to call `onlyOwner` functions. Can only be called by the current owner. NOTE: Renouncing ownership will leave the contract without an owner, thereby disabling any functionality that is only available to the owner."
      },
      "safeTransferFrom(address,address,uint256)": {
        "details": "Safely transfers `tokenId` token from `from` to `to`, checking first that contract recipients are aware of the ERC-721 protocol to prevent tokens from being forever locked. Requirements: - `from` cannot be the zero address. - `to` cannot be the zero address. - `tokenId` token must exist and be owned by `from`. - If the caller is not `from`, it must have been allowed to move this token by either {approve} or   {setApprovalForAll}. - If `to` refers to a smart contract, it must implement {IERC721Receiver-onERC721Received}, which is called upon   a safe transfer. Emits a {Transfer} event."
      },
      "safeTransferFrom(address,address,uint256,bytes)": {
        "details": "Safely transfers `tokenId` token from `from` to `to`. Requirements: - `from` cannot be the zero address. - `to` cannot be the zero address. - `tokenId` token must exist and be owned by `from`. - If the caller is not `from`, it must be approved to move this token by either {approve} or {setApprovalForAll}. - If `to` refers to a smart contract, it must implement {IERC721Receiver-onERC721Received}, which is called upon   a safe transfer. Emits a {Transfer} event."
      },
      "setApprovalForAll(address,bool)": {
        "details": "Approve or remove `operator` as an operator for the caller. Operators can call {transferFrom} or {safeTransferFrom} for any token owned by the caller. Requirements: - The `operator` cannot be the address zero. Emits an {ApprovalForAll} event."
      },
      "supportsInterface(bytes4)": {
        "details": "Returns true if this contract implements the interface defined by `interfaceId`. See the corresponding https://eips.ethereum.org/EIPS/eip-165#how-interfaces-are-identified[ERC section] to learn more about how these ids are created. This function call must use less than 30 000 gas."
      },
      "symbol()": {
        "details": "Returns the token collection symbol."
      },
      "tokenURI(uint256)": {
        "details": "Returns the Uniform Resource Identifier (URI) for `tokenId` token."
      },
      "transferFrom(address,address,uint256)": {
        "details": "Transfers `tokenId` token from `from` to `to`. WARNING: Note that the caller is responsible to confirm that the recipient is capable of receiving ERC-721 or else they may be permanently lost. Usage of {safeTransferFrom} prevents loss, though the caller must understand this adds an external call which potentially creates a reentrancy vulnerability. Requirements: - `from` cannot be the zero address. - `to` cannot be the zero address. - `tokenId` token must be owned by `from`. - If the caller is not `from`, it must be approved to move this token by either {approve} or {setApprovalForAll}. Emits a {Transfer} event."
      },
      "transferOwnership(address)": {
        "details": "Transfers ownership of the contract to a new account (`newOwner`). Can only be called by the current owner."
      }
    },
    "version": 1
  },
  "userdoc": {
    "kind": "user",
    "methods": {},
    "version": 1
  }
}